:020000040800F2
:1000000000500020C50400089D0400089F0400085B
:10001000A1040008A3040008A504000800000000D3
:10002000000000000000000000000000A70400081D
:10003000A904000800000000AB040008AD0400089B
:100040000D0500080D0500080D0500080D05000848
:100050000D0500080D0500080D0500080D05000838
:100060000D0500080D0500080D0500080D05000828
:100070000D0500080D0500080D0500080D05000818
:100080000D0500080D0500080D0500080D05000808
:100090000D0500080D0500080D0500080D050008F8
:1000A0000D0500080D0500080D0500080D050008E8
:1000B0000D0500080D0500080D0500080D050008D8
:1000C0000D0500080D0500080D0500080D050008C8
:1000D0000D0500080D0500080D0500080D050008B8
:1000E000B50400080D0500080D050008000000001B
:1000F0000000000000000000000000000000000000
:0C01000000000000000000005FF808F1A3
:10010C000348044B834202D0034B03B1184770479A
:10011C003C0400203C040020000000000548064977
:10012C000B1AD90F01EBA301491002D0034B03B1F9
:10013C00184770473C0400203C04002000000000DD
:10014C0010B5064C237843B9FFF7DAFF044B13B113
:10015C000448AFF300800123237010BD3C04002041
:10016C00000000006010000808B5044B1BB10449E6
:10017C000448AFF30080BDE80840CFE70000000062
:10018C004004002060100008002301461A4618465F
:10019C0000F03EB838B50A4C0A4D641BA4100AD0C6
:1001AC0004F18043013B05EB8305013C55F8043910
:1001BC009847002CF9D1BDE8384000F051BF00BF82
:1001CC00B4100008B010000870B50D4E0D4D761B24
:1001DC00B61006D00024013455F8043B9847A642CB
:1001EC00F9D1094E094D00F035FF761BB61006D03B
:1001FC000024013455F8043B9847A642F9D170BD50
:10020C00A8100008A8100008B0100008A8100008DA
:10021C00F0B4174C2568D5F848410CB365681F2D10
:10022C0023DC38B900206B1C0235636044F82510C0
:10023C00F0BC7047012604EB850CCCF88820D4F870
:10024C00887106FA05F217430228C4F88871CCF8B5
:10025C000831E7D1D4F88C311A43C4F88C21E1E78A
:10026C0005F5A674C5F84841D8E74FF0FF30DFE735
:10027C007810000830B589B00024049405940694D5
:10028C000794254B9A6942F010029A619A6902F020
:10029C0010020092009A9A6942F020029A619A69BF
:1002AC0002F020020192019A9A6942F004029A61CA
:1002BC009A6902F004020292029A9A6942F00802C8
:1002CC009A619B6903F008030393039B134D224629
:1002DC002021284600F0EEFA4FF400530493104B03
:1002EC000593069404A90F4800F0D4F92023049335
:1002FC000123059306940223079304A9284600F0D2
:10030C00C9F922462146282000F06CF9282000F07B
:10031C009DF909B030BD00BF00100240000801403B
:10032C00000011100010014008B50848084B03608C
:10033C004FF4E133436000238360C36003610C22FC
:10034C0042618361C36100F04BFE08BD580400207C
:10035C000044004030B591B00024079408940994EF
:10036C000C9401940294039404940594022506952C
:10037C0001230A9310230B930D950E944FF46013E5
:10038C000F9306A800F0CAFA0F2301930295039469
:10039C004FF4806304930594294601A800F0FCFCFB
:1003AC0011B030BD10B500F0D3F8FFF7D3FFFFF755
:1003BC0061FFFFF7B9FF0024B4F57A7F08DA20213A
:1003CC00094800F07DFA012000F0E6F80134F3E76B
:1003DC000024632CEFDC2021034800F071FA0A2082
:1003EC0000F0DAF80134F4E70008014082B00E4B5B
:1003FC009A6942F001029A619A6902F00102009234
:10040C00009ADA6942F08052DA61DB6903F08053BA
:10041C000193019B054A536823F0E06343F000739A
:10042C00536002B0704700BF001002400000014052
:10043C0000B587B0002302930393049305930268DD
:10044C00114B9A4202D007B05DF804FB03F5E6337A
:10045C00DA6942F40032DA61DA6902F400320092AD
:10046C00009A9A6942F004029A619B6903F00403B2
:10047C000193019B0C23029302230393059302A97E
:10048C00024800F007F9DEE7004400400008014094
:10049C007047FEE7FEE7FEE7FEE7704770477047E0
:1004AC0008B500F067F808BD08B54FF4005000F02F
:1004BC0011FA08BD70470000002103E00B4B5B589C
:1004CC00435004310A480B4B42189A42F6D30A4A5D
:1004DC0002E0002342F8043B084B9A42F9D3FFF7A1
:1004EC00E9FFFFF771FEFFF75DFF7047B4100008DE
:1004FC00000000203C0400203C0400209C04002050
:10050C00FEE7000010B504460E4B18784FF47A73D2
:10051C00B3FBF0F30C4A1068B0FBF3F000F0A4F856
:10052C0068B90F2C01D901200AE0002221464FF0B6
:10053C00FF3000F057F8054B1C60002000E0012054
:10054C0010BD00BF3404002030040020380400200B
:10055C0008B5074A136843F010031360032000F03A
:10056C002FF80020FFF7CEFFFFF740FF002008BD5B
:10057C0000200240034A1168034B1B780B441360A4
:10058C00704700BF9804002034040020014B186809
:10059C00704700BF9804002038B50446FFF7F6FFFB
:1005AC000546B4F1FF3F02D0044B1B781C44FFF707
:1005BC00EDFF401BA042FAD338BD00BF340400202D
:1005CC00074AD36823F4E0631B041B0C000200F4FD
:1005DC00E060034343F0BF6343F40033D3607047E0
:1005EC0000ED00E030B4174BDB68C3F30223C3F11A
:1005FC000704042C28BF04241D1D062D18D9033B09
:10060C004FF0FF3505FA04F421EA0401994005FA8C
:10061C0003F322EA0303194300280BDB0901C9B2D7
:10062C0000F1604000F5614080F8001330BC704769
:10063C000023E5E700F00F000901C9B2024B195481
:10064C00F4E700BF00ED00E014ED00E0002807DB4C
:10065C0000F01F02400901239340024A42F8203067
:10066C00704700BF00E100E00138B0F1807F0AD292
:10067C00064B5860064AF02182F82310002098603F
:10068C0007221A6070470120704700BF10E000E09D
:10069C0000ED00E0F0B482B000252C46A3E07F4FC3
:1006AC00BB4210D007D97E4FBB420CD007F5803728
:1006BC00BB4208D013E0A7F58017BB4203D007F567
:1006CC007027BB4207D18B68002B58D0012B51D01F
:1006DC004261082503E0A7F58017BB42F3D0FF2E3B
:1006EC004FD88446FF2E4FD8A200DCF800300F27DD
:1006FC00974023EA070305FA02F21343CCF80030C3
:10070C004B6813F0805F6DD0664B9A6942F0010222
:10071C009A619B6903F001030193019BA208971C4A
:10072C00614B53F8273004F00307BF004FF00F0C58
:10073C000CFA07FC23EA0C0C5C4B98422AD003F50C
:10074C008063984200F08A8003F58063984200F041
:10075C00878003F5806398421AD004231BE0CD6890
:10076C00BDE7CD680435BAE7CD680835B7E7CD6885
:10077C000C35B4E702610825B1E70025AFE7042585
:10078C00ADE700F1040CADE7A4F108029200ACE770
:10079C00032300E00023BB4043EA0C030232424F28
:1007AC0047F822304B6813F4803F5BD0404A136803
:1007BC00334313604B6813F4003F59D03C4A5368E1
:1007CC00334353604B6813F4801F57D0384A9368F7
:1007DC00334393604B6813F4001F55D0344AD368ED
:1007EC001E43D66001340B6833FA04F252D0012256
:1007FC00A24003EA020632EA0303F3D14B68122B40
:10080C003FF64DAF122B3FF66AAF01A757F823F016
:10081C00D30600086B070008750700088707000857
:10082C00EB060008EB060008EB060008EB060008D8
:10083C00EB060008EB060008EB060008EB060008C8
:10084C00EB060008EB060008EB060008EB060008B8
:10085C00EB0600086F0700087B07000801239AE7E6
:10086C00022398E7124A136823EA06031360A1E7F0
:10087C000F4A536823EA06035360A3E70C4A9368B4
:10088C0023EA06039360A5E7094AD36823EA060620
:10089C00D660A7E702B0F0BC704700BF0000221082
:1008AC00000031100010024000000140000801401F
:1008BC00000401400AB101617047090401617047ED
:1008CC00C36801EA030221EA030141EA0241016122
:1008DC007047704708B5054B5B69034200D108BDF2
:1008EC00024B5861FFF7F5FFF9E700BF0004014028
:1008FC0082B0084B1B68084AA2FB03235B0A00FB6F
:10090C0003F3019300BF019B5A1E0192002BF9D1F6
:10091C0002B0704730040020D34D6210002800F064
:10092C00F18170B582B00446036813F0010F2CD02E
:10093C00AA4B5B6803F00C03042B1DD0A74B5B6820
:10094C0003F00C03082B12D06368B3F5803F41D041
:10095C00002B55D103F1804303F504331A6822F4BC
:10096C0080321A601A6822F480221A6037E09B4B9E
:10097C005B6813F4803FE7D0984B1B6813F4003F7F
:10098C0003D06368002B00F0BF81236813F0020FC3
:10099C0075D0924B5B6813F00C0F5FD08F4B5B687C
:1009AC0003F00C03082B54D02369002B00F0898032
:1009BC008B4B01221A60FFF7E9FD0546874B1B683C
:1009CC0013F0020F74D1FFF7E1FD401B0228F5D99B
:1009DC0003209EE1814A136843F4803313606368FB
:1009EC0043B3FFF7D3FD05467C4B1B6813F4003F64
:1009FC00CBD1FFF7CBFD401B6428F5D9032088E150
:100A0C00B3F5A02F09D0754B1A6822F480321A6006
:100A1C001A6822F480221A60E1E703F18043A3F5FF
:100A2C003C331A6842F480221A601A6842F480320D
:100A3C001A60D4E7FFF7AAFD0546684B1B6813F450
:100A4C00003FA2D0FFF7A2FD401B6428F5D903207C
:100A5C005FE1624B5B6813F4803FA5D15F4B1B6871
:100A6C0013F0020F03D02369012B40F04F815B4A36
:100A7C00136823F0F803616943EAC1031360236828
:100A8C0013F0080F32D0A369002B45D0554B01222F
:100A9C001A60FFF77BFD0546504B5B6A13F0020FA3
:100AAC0021D1FFF773FD401B0228F5D9032030E15B
:100ABC004A4A136823F0F803616943EAC1031360DF
:100ACC00DDE7474B00221A60FFF760FD0546434BFC
:100ADC001B6813F0020FD2D0FFF758FD401B022801
:100AEC00F5D9032015E10120FFF702FF236813F06D
:100AFC00040F00F09780394BDB6913F0805F1DD138
:100B0C00364BDA6942F08052DA61DB6903F08053CC
:100B1C000193019B012512E0324B00221A60FFF772
:100B2C0035FD05462D4B5B6A13F0020FDED0FFF747
:100B3C002DFD401B0228F5D90320EAE000252A4BA5
:100B4C001B6813F4807F11D0E368012B22D0002B9B
:100B5C0038D103F1804303F504331A6A22F0010201
:100B6C001A621A6A22F004021A6218E01E4A13680A
:100B7C0043F480731360FFF709FD06461A4B1B689C
:100B8C0013F4807FE0D1FFF701FD801B6428F5D9B9
:100B9C000320BEE0114A136A43F001031362E368B9
:100BAC0073B3FFF7F3FC06460C4B1B6A13F0020FF2
:100BBC0037D1FFF7EBFC801B41F288339842F3D915
:100BCC000320A6E0052B11D0044B1A6A22F0010277
:100BDC001A621A6A22F004021A62E0E7001002405C
:100BEC000000424280044242007000404D4B1A6AA1
:100BFC0042F004021A621A6A42F001021A62CEE74B
:100C0C00FFF7C4FC0646474B1B6A13F0020F08D0D3
:100C1C00FFF7BCFC801B41F288339842F3D90320C8
:100C2C0077E0E5B9E369002B72D03E4A526802F0D6
:100C3C000C02082A56D0022B17D03B4B00221A600C
:100C4C00FFF7A4FC0446374B1B6813F0007F47D01A
:100C5C00FFF79CFC001B0228F5D9032059E0314A10
:100C6C00D36923F08053D361DCE72F4B00221A6049
:100C7C00FFF78CFC05462B4B1B6813F0007F06D04E
:100C8C00FFF784FC401B0228F5D9032041E0236ABE
:100C9C00B3F5803F1AD023494B6823F47413226AAE
:100CAC00606A024313434B601F4B01221A60FFF72B
:100CBC006DFC04461B4B1B6813F0007F0ED1FFF735
:100CCC0065FC001B0228F5D9032022E0154A536865
:100CDC0023F40033A1680B435360DCE7002018E0D9
:100CEC00002016E0012B16D00E4B5B6803F480310C
:100CFC00226A914211D103F47013626A93420ED1AD
:100D0C00002006E001207047012002E0012000E0F5
:100D1C00002002B070BD0120FBE70120F9E70120A3
:100D2C00F7E700BF001002406000424286B0164B4D
:100D3C000FCB0DF1180C0CE90F0040F20123ADF8AC
:100D4C000430124B5B6803F00C02082A02D01048E6
:100D5C0006B07047C3F38342624412F8102C13F4AC
:100D6C00803F0CD0094B5B68C3F34043634413F8DA
:100D7C00143C074800FB02F0B0FBF3F0E8E7054831
:100D8C0000FB02F0E4E700BF9410000800100240E2
:100D9C0000127A0000093D00002800F0A08070B518
:100DAC000D460446524B1B6803F007038B420BD2D3
:100DBC004F4A136823F007030B431360136803F0C7
:100DCC0007038B4240F08D80236813F0020F17D07D
:100DDC0013F0040F04D0474A536843F4E0635360A4
:100DEC00236813F0080F04D0424A536843F460534D
:100DFC005360404A536823F0F003A1680B435360DF
:100E0C00236813F0010F31D06368012B20D0022B23
:100E1C0025D0384A126812F0020F64D035494A685E
:100E2C0022F0030213434B60FFF7B0FB0646314B35
:100E3C005B6803F00C036268B3EB820F16D0FFF70C
:100E4C00A5FB801B41F288339842F0D9032045E082
:100E5C00284A126812F4003FE0D101203EE0254AF6
:100E6C00126812F0007FD9D1012037E0204B1B68AB
:100E7C0003F00703AB420AD91D4A136823F007039A
:100E8C002B431360136803F00703AB422DD1236887
:100E9C0013F0040F06D0174A536823F4E063E1689B
:100EAC000B435360236813F0080F07D0114A5368A3
:100EBC0023F46053216943EAC1035360FFF736FF03
:100ECC000C4B5B68C3F303130B4AD35CD8400B4B3E
:100EDC0018600B4B1868FFF715FB002070BD012044
:100EEC0070470120FAE70120F8E70120F6E700BF80
:100EFC0000200240001002407C100008300400204A
:100F0C0038040020014B1868704700BF30040020E3
:100F1C0008B5FFF7F7FF044B5B68C3F30223034AE2
:100F2C00D35CD84008BD00BF001002408C100008F4
:100F3C0008B5FFF7E7FF044B5B68C3F3C223034A12
:100F4C00D35CD84008BD00BF001002408C100008D4
:100F5C0010B504460268136923F44053C1680B436F
:100F6C00136183680269134342691A430168CB68B1
:100F7C0023F4B05323F00C031343CB600268536982
:100F8C0023F4407381690B4353610268124B9A42FC
:100F9C001FD0FFF7BDFF00EB800303EB83036268F8
:100FAC009200B3FBF2F20D48A0FB02314909642315
:100FBC0003FB11231B013233A0FB03235B0903F05A
:100FCC00F00202EB011203F00F03216813448B6053
:100FDC0010BDFFF7ADFFDEE7003801401F85EB5178
:100FEC0058B310B5044690F839300BB3242384F869
:100FFC0039302268D36823F40053D3602046FFF7BE
:10100C00A7FF2268136923F4904313612268536984
:10101C0023F02A0353612268D36843F40053D3604E
:10102C000020E063202384F8393084F83A3010BD76
:10103C0080F83830FFF7FCF9D8E701207047000042
:10104C00024B13B10248FFF79FB870470000000035
:10105C00A1010008F8B500BFF8BC08BC9E4670475B
:0C106C00F8B500BFF8BC08BC9E467047F9
:101078000800002000000000000000000102030436
:101088000607080900000000010203040203040522
:10109800060708090A0B0C0D0E0F101000000000BF
:0810A8004D100008750100085D
:0410B0004D010008E6
:1010B400080000200000000000000000F4020020EE
:1010C4005C030020C40300200000000000000000B6
:1010D400000000000000000000000000000000000C
:1010E40000000000000000000000000000000000FC
:1010F40000000000000000000000000000000000EC
:1011040000000000000000000000000000000000DB
:1011140000000000000000000000000000000000CB
:1011240000000000000000000000000000000000BB
:1011340000000000000000000000000000000000AB
:10114400000000000000000000000000000000009B
:10115400000000000000000000000000000000008B
:1011640001000000000000000E33CDAB34126DE628
:10117400ECDE05000B000000000000000000000091
:10118400000000000000000000000000000000005B
:10119400000000000000000000000000000000004B
:1011A400000000000000000000000000000000003B
:1011B400000000000000000000000000000000002B
:0C14E4000024F4000100000010000000D3
:04000005080004C526
:00000001FF
