:020000040800F2
:1000000000500020ED020008C5020008C7020008E9
:10001000C9020008CB020008CD0200080000000061
:10002000000000000000000000000000CF020008F7
:10003000D102000800000000D3020008D502000829
:1000400035030008350300083503000835030008B0
:1000500035030008350300083503000835030008A0
:100060003503000835030008350300083503000890
:100070003503000835030008350300083503000880
:100080003503000835030008350300083503000870
:100090003503000835030008350300083503000860
:1000A0003503000835030008350300083503000850
:1000B0003503000835030008350300083503000840
:1000C0003503000835030008350300083503000830
:1000D0003503000835030008350300083503000820
:1000E000DD020008350300083503000800000000A9
:1000F0000000000000000000000000000000000000
:0C01000000000000000000005FF808F1A3
:10010C000348044B834202D0034B03B1184770479A
:10011C003404002034040020000000000548064987
:10012C000B1AD90F01EBA301491002D0034B03B1F9
:10013C0018477047340400203404002000000000ED
:10014C0010B5064C237843B9FFF7DAFF044B13B113
:10015C000448AFF300800123237010BD3404002049
:10016C0000000000B405000808B5044B1BB104499D
:10017C000448AFF30080BDE80840CFE70000000062
:10018C0038040020B4050008002301461A4618461E
:10019C0000F03EB838B50A4C0A4D641BA4100AD0C6
:1001AC0004F18043013B05EB8305013C55F8043910
:1001BC009847002CF9D1BDE8384000F0FBB900BFDE
:1001CC00DC050008D805000870B50D4E0D4D761BEA
:1001DC00B61006D00024013455F8043B9847A642CB
:1001EC00F9D1094E094D00F0DFF9761BB61006D097
:1001FC000024013455F8043B9847A642F9D170BD50
:10020C00D0050008D0050008D8050008D005000866
:10021C00F0B4174C2568D5F848410CB365681F2D10
:10022C0023DC38B900206B1C0235636044F82510C0
:10023C00F0BC7047012604EB850CCCF88820D4F870
:10024C00887106FA05F217430228C4F88871CCF8B5
:10025C000831E7D1D4F88C311A43C4F88C21E1E78A
:10026C0005F5A674C5F84841D8E74FF0FF30DFE735
:10027C00CC05000800B585B00D4A936943F0040322
:10028C0093610B4B9B6913F0040FFAD0202500955A
:10029C00012301930023029302230393054C694627
:1002AC00204600F04FF82946204600F05BF9FEE7A7
:1002BC0000100240000801407047FEE7FEE7FEE731
:1002CC00FEE770477047704708B500F02FF808BD7F
:1002DC0008B54FF4005000F04FF908BD704700000E
:1002EC00002103E00B4B5B58435004310A480B4B85
:1002FC0042189A42F6D30A4A02E0002342F8043B21
:10030C00084B9A42F9D3FFF7E9FFFFF75DFFFFF7C0
:10031C00B1FF7047DC050008000000203404002009
:10032C003404002054040020FEE70000034A116846
:10033C00034B1B780B441360704700BF5004002024
:10034C0030040020F0B482B000252C46A3E07F4F8F
:10035C00BB4210D007D97E4FBB420CD007F580377B
:10036C00BB4208D013E0A7F58017BB4203D007F5BA
:10037C007027BB4207D18B68002B58D0012B51D072
:10038C004261082503E0A7F58017BB42F3D0FF2E8E
:10039C004FD88446FF2E4FD8A200DCF800300F2730
:1003AC00974023EA070305FA02F21343CCF8003016
:1003BC004B6813F0805F6DD0664B9A6942F0010276
:1003CC009A619B6903F001030193019BA208971C9E
:1003DC00614B53F8273004F00307BF004FF00F0CAC
:1003EC000CFA07FC23EA0C0C5C4B98422AD003F560
:1003FC008063984200F08A8003F58063984200F095
:10040C00878003F5806398421AD004231BE0CD68E3
:10041C00BDE7CD680435BAE7CD680835B7E7CD68D8
:10042C000C35B4E702610825B1E70025AFE70425D8
:10043C00ADE700F1040CADE7A4F108029200ACE7C3
:10044C00032300E00023BB4043EA0C030232424F7B
:10045C0047F822304B6813F4803F5BD0404A136856
:10046C00334313604B6813F4003F59D03C4A536834
:10047C00334353604B6813F4801F57D0384A93684A
:10048C00334393604B6813F4001F55D0344AD36840
:10049C001E43D66001340B6833FA04F252D00122A9
:1004AC00A24003EA020632EA0303F3D14B68122B93
:1004BC003FF64DAF122B3FF66AAF01A757F823F06A
:1004CC00830300081B0400082504000837040008F7
:1004DC009B0300089B0300089B0300089B03000878
:1004EC009B0300089B0300089B0300089B03000868
:1004FC009B0300089B0300089B0300089B03000858
:10050C009B0300081F0400082B04000801239AE732
:10051C00022398E7124A136823EA06031360A1E743
:10052C000F4A536823EA06035360A3E70C4A936807
:10053C0023EA06039360A5E7094AD36823EA060673
:10054C00D660A7E702B0F0BC704700BF00002210D5
:10055C000000311000100240000001400008014072
:10056C0000040140C36801EA030221EA030141EAE5
:10057C00024101617047704708B5054B5B69034246
:10058C0000D108BD024B5861FFF7F5FFF9E700BF3A
:10059C0000040140024B13B10248FFF7F5BD704750
:1005AC0000000000A1010008F8B500BFF8BC08BCB1
:1005BC009E467047F8B500BFF8BC08BC9E46704715
:0405CC000800002003
:0805D000A105000875010008F7
:0405D8004D010008C9
:1005DC00080000200000000000000000F4020020D1
:1005EC005C030020C4030020000000000000000099
:1005FC0000000000000000000000000000000000EF
:10060C0000000000000000000000000000000000DE
:10061C0000000000000000000000000000000000CE
:10062C0000000000000000000000000000000000BE
:10063C0000000000000000000000000000000000AE
:10064C00000000000000000000000000000000009E
:10065C00000000000000000000000000000000008E
:10066C00000000000000000000000000000000007E
:10067C00000000000000000000000000000000006E
:10068C0001000000000000000E33CDAB34126DE60B
:10069C00ECDE05000B000000000000000000000074
:1006AC00000000000000000000000000000000003E
:1006BC00000000000000000000000000000000002E
:1006CC00000000000000000000000000000000001E
:1006DC00000000000000000000000000000000000E
:040A0C0001000000E5
:04000005080002ED00
:00000001FF
